:020000040800F2
:1000000090050020A10100081D2A000859280008B9
:10001000092A0008611100082930000800000000CA
:10002000000000000000000000000000F92A0008A5
:10003000F112000800000000312A0008FB2A000825
:10004000BB010008BB010008BB010008BB010008A0
:10005000BB010008BB010008BB010008BB01000890
:10006000BB010008BB010008BB010008BB01000880
:10007000BB010008BB010008BB010008BB01000870
:10008000BB010008BB010008BB010008BB01000860
:10009000BB010008BB010008BB010008BB01000850
:1000A000BB010008BB010008BB010008BB01000840
:1000B000BB010008BB010008BB010008BB01000830
:1000C000BB010008BB010008BB010008BB01000820
:1000D000BB010008BB010008BB010008BB01000810
:1000E000BB010008BB010008BB010008BB01000800
:1000F000BB010008BB010008BB010008BB010008F0
:10010000BB010008BB010008BB010008BB010008DF
:10011000BB010008BB010008BB010008BB010008CF
:10012000BB010008BB010008BB010008BB010008BF
:10013000BB010008BB010008BB010008BB010008AF
:10014000BB010008BB010008BB010008BB0100089F
:10015000BB010008BB010008BB010008BB0100088F
:10016000BB010008BB010008BB010008BB0100087F
:10017000BB010008BB010008BB0100080000000033
:10018000BB010008BB010008DFF810D000F04AFAFC
:10019000004800474D390008AFF30080900500206B
:1001A0000648804706480047FEE7FEE7FEE7FEE711
:1001B000FEE7FEE7FEE7FEE7FEE7FEE7B92B0008F5
:1001C000890100082DE9F05F0546002092469B4614
:1001D00088460646814640241BE02846414647465D
:1001E000224600F057F853465A46C01A914110D3A0
:1001F00011461846224600F03EF82D1A67EB01081A
:100200004F4622460120002100F035F817EB000987
:100210004E41201EA4F10104DFDC484631462A4647
:100220004346BDE8F09FD2B201E000F8012B491E21
:10023000FBD270470022F6E710B513460A46044683
:100240001946FFF7F0FF204610BD30B50B460146BA
:1002500000202022012409E021FA02F59D4205D365
:1002600003FA02F5491B04FA02F52844151EA2F10F
:100270000102F1DC30BD202A04DB203A00FA02F151
:10028000002070479140C2F1200320FA03F3194384
:1002900090407047202A04DB203A21FA02F0002126
:1002A000704721FA02F3D040C2F120029140084386
:1002B000194670472DE9FE4F804681EA0300C00FC2
:1002C0000C46009021F0004123F00045B8EB0200FD
:1002D000A94105D24046214690461C460B4602469F
:1002E00023F00040104347D0270DC7F30A00C3F3A3
:1002F0000A510290401A019040286BDAC3F31300B0
:1003000040F4801B0098924620B10023D2EB030AF0
:1003100063EB0B0B01985946C0F140025046FFF7C2
:10032000AAFF06460D4650465946019A00F08CF940
:1003300010EB08006141002487EA115284EAE77358
:100340001A4340D0009A62B3019A012A4FEA075239
:1003500015DC001B61EB02014FF0004202EA07527C
:10036000CDE90042001C41F5801132462B4600F0D9
:100370008CF903B0BDE8F08F40462146F9E7001B39
:1003800061EB0201001C41F5801300185B4120184D
:10039000A2F5001747EB030140EAD570B6196D418D
:1003A00011E06D084FEA360645EAC0754FEA07527C
:1003B000001B61EB0201001C41F5801149084FEA66
:1003C00030000019514132462B4603B0BDE8F04FD2
:1003D00000F04CB90098012240000023D0EB02024B
:1003E00063EBE073009821464FEAE074B8EB00003D
:1003F00061EB0401E9E783F000435BE781F0004132
:1004000058E72DE9FE4F81EA030404F0004421F08F
:10041000004100944FF0000B23F0004350EA010428
:100420005ED052EA03045BD0C3F30A54C1F30A5509
:100430002C44A4F2F3340194A0FB0254C1F3130141
:1004400041F48011C3F3130343F4801301FB02440E
:1004500000FB034E840A970A44EA815447EA835713
:10046000A4FB076802958D0A05FB07854FEA932CCC
:1004700004FB0C542705029D4FEA065847EA16373D
:10048000B5EB08056EEB070C870E920E47EA811755
:1004900042EA8312A7FB0201B6EB0B0164EB0004F6
:1004A0002B0D43EA0C335E1844EB1C50DA465146E0
:1004B000E7FB0201C5F313044FEA0B3343EA14537D
:1004C0004FEA0432019C43EA0603A4F10C040294AF
:1004D000009CCDE900B400F0D8F803B0BDE8F08F7F
:1004E00000200146F9E72DE9F04D81EA030404F00C
:1004F000004B21F0004514464FF0000A23F0004164
:1005000050EA050220D054EA01021DD0C5F30A5773
:100510000246C5F31303C1F31300C1F30A5640F4B6
:10052000801543F48013A7EB0608101BD64608F28B
:10053000FD3873EB050002D308F1010801E09218C1
:100540005B41B8F1000F03DA00200146BDE8F08DF1
:1005500000204FF48011064684460EE0171B73EB13
:10056000050705D3121B63EB050306434CEA010C98
:1005700049084FEA300092185B4150EA0107EDD17B
:1005800052EA030012D082EA040083EA050108431C
:1005900005D0101BAB4106D20122002306E0002249
:1005A0004FF0004302E06FF0010253101AEB060017
:1005B0004CEB085110EB0A0041EB0B01BDE8F04D8C
:1005C00000F054B8C1F30A52C1F3130140F2FF33F3
:1005D00041F480119A4202DA00200146704740F24D
:1005E00033439A42A2F2334202DC5242FFF752BE38
:1005F000FFF741BE30B5041E71F1000404DB4FF07B
:100600000044404264EB0101141E73F1000405DB59
:100610001C464FF00043524263EB0403994208BF6B
:10062000904230BD064C074D06E0E06840F0010303
:1006300094E8070098471034AC42F6D3FFF7A8FDC2
:10064000003A0008203A0008202A06DBCB17203A9F
:1006500041FA02F043EAE07306E041FA02F3D040C7
:10066000C2F12002914008431946704710B5141E8C
:1006700073F1000408DA401C41F1000192185B415B
:100680001A4301D120F0010010BD2DE9F04D924632
:100690009B4611B1B1FA81F202E0B0FA80F2203249
:1006A0009046FFF7E8FD04460F4640EA0A0041EA9B
:1006B0000B0153465A46084313D0114653EA010032
:1006C00019D0C8F140025046FFF7E4FD05460E463A
:1006D000504659464246FFF7CEFD084305D001205B
:1006E00004E020463946BDE8F08D0020054346EA87
:1006F000E0762C4337430A986305E40AA0EB080030
:100700000022FD0A44EA47540A3002D5002001467F
:10071000E9E7010510196941DDE90845001969415A
:10072000BDE8F04DA2E700000FB400B59BB0642116
:1007300002A8FFF77FFD1DA8019002A8019A1C994D
:1007400002F07CFC4FF0FF33642202A9034802F060
:1007500017F8002001901BB05DF814FB2400002066
:1007600070B5002501240026C8213C48FFF762FD32
:10077000A31E012239493A4801F092FF044604B110
:1007800069E0364806784FF0FF333246411C344862
:1007900001F086FF04460CB100255CE02F4840784C
:1007A0001038122852D2DFE800F0090E13181D226B
:1007B000272C343C515151515151444C274800F0A1
:1007C00091FA012546E0254800F02EFA012541E086
:1007D000224800F0C9F901253CE0204800F034FC33
:1007E000012537E01D4800F0EFFA012532E01B48F3
:1007F00000F034F901252DE0184800F075FB0125C3
:1008000028E01848FFF790FF144800F025F901256B
:1008100020E015A0FFF788FF104800F063FB0125DA
:1008200018E020A0FFF780FF0C4800F059FA0125DE
:1008300010E027A0FFF778FF084800F003FC01252F
:1008400008E0064800F098F8012503E027A0FFF72C
:100850006BFF00BF00BF284670BD0000C400002031
:1008600064000020B439000852656164206461743A
:10087000612066726F6D20646966666572656E746C
:10088000206D656D6F72696573206F662074686591
:10089000206D6963726F636F6E74726F6C6C6572DA
:1008A000200D0A005265616420616C6C20746865DB
:1008B00020736563746F722070726F7465637469FE
:1008C0006F6E20737461747573200D0A0000000050
:1008D0005265616420746865204F545020636F6EC8
:1008E00074656E7473200D0A00000000496E766115
:1008F0006C696420636F6D6D616E6420636F646505
:100900002072656365697665642066726F6D206824
:100910006F7374202121200D0A0000002DE9F84397
:1009200005460E4617464FF00008C1460024002039
:10093000009000BF09E0285D0090012269460D4843
:1009400000F0F7FE8146601CC4B2B442F3D30948FC
:100950000068806840F00100064909688860B94570
:1009600002D14FF0010801E04FF000084046BDE819
:10097000F883000000000020F8B505460026002797
:1009800000200090002419A0FFF7CEFE2878461C16
:10099000A81950F8047C311F3A462846FFF7BEFFDD
:1009A00001281CD11EA0FFF7BFFE012000F0A8FB0C
:1009B000AC78022C01D0CC2C02D10020009009E0B0
:1009C0000CB9AA2402E0012C00D15524204600F0E5
:1009D000DBFB00900121684600F0A6FB04E017A0B5
:1009E000FFF7A2FE00F0AEFBF8BD00004368616EA9
:1009F000676520726561642070726F7465637469E5
:100A00006F6E206C6576656C206F6620746865205B
:100A10007573657220666C617368200D0A000000B2
:100A200043524320566572696669636174696F6EEB
:100A300020506173736564200D0A00004352432007
:100A4000566572696669636174696F6E2046616993
:100A50006C6564200D0A000070470000F8B504467C
:100A6000002500260020009019A0FFF75DFE2078E9
:100A7000451C601950F8046C291F32462046FFF7C8
:100A80004DFF01281ED11EA0FFF74EFE012000F0F1
:100A900037FBE178A07801F0CDFF00909DF80000D1
:100AA000032807D10121684600F03EFB1BA0FFF799
:100AB0003BFE0CE00121684600F036FB1CA0FFF76E
:100AC00033FE04E021A0FFF72FFE00F03BFBF8BD52
:100AD0004D617373206572617365206F7220736559
:100AE00063746F72206572617365206F662074682D
:100AF00065207573657220666C617368200D0A004D
:100B000043524320566572696669636174696F6E0A
:100B100020506173736564200D0A00005375636390
:100B200065737366756C204572617365200D0A00EC
:100B300045726173652072657175657374206661B5
:100B4000696C65642021210D0A0000004352432096
:100B5000566572696669636174696F6E2046616982
:100B60006C6564200D0A0000F8B5044600250026D7
:100B70000020009012A0FFF7D7FD2078451C6019D7
:100B800050F8046C291F32462046FFF7C7FE0128A3
:100B90000FD116A0FFF7C8FD1B480068C0F30B007B
:100BA0000090022000F0ACFA0221684600F0BCFA86
:100BB00004E016A0FFF7B8FD00F0C4FAF8BD00008D
:100BC0005265616420746865204D435520636869EF
:100BD00070206964656E74696669636174696F6EBB
:100BE000206E756D626572200D0A0000435243202D
:100BF000566572696669636174696F6E20506173CE
:100C0000736564200D0A0000002004E04352432075
:100C1000566572696669636174696F6E20466169C1
:100C20006C6564200D0A000070B50446002500269E
:100C30000FA0FFF779FD2078451C601950F8046C6F
:100C4000291F32462046FFF769FE01280AD115A068
:100C5000FFF76AFD0C2000F053FA0C21184800F051
:100C600063FA04E017A0FFF75FFD00F06BFA70BDB8
:100C7000526561642074686520636F6D6D616E6498
:100C80007320737570706F7274656420627920745C
:100C9000686520626F6F746C6F61646572200D0A05
:100CA0000000000043524320566572696669636123
:100CB00074696F6E20506173736564200D0A0000C3
:100CC00018000020435243205665726966696361CB
:100CD00074696F6E204661696C6564200D0A0000BE
:100CE00070470000F8B5044616A000680090002583
:100CF000002615A0FFF718FD2078451C601950F854
:100D0000046C291F32462046FFF708FE012813D144
:100D100018A0FFF709FD042000F0F2F9042168464D
:100D200000F002FA9DF803309DF802209DF80110B2
:100D300017A0FFF7F9FC04E01CA0FFF7F5FC00F09A
:100D400001FAF8BD640101005265616420746865B0
:100D500020626F6F746C6F61646572207665727368
:100D6000696F6E2066726F6D20746865204D435503
:100D7000200D0A004352432056657269666963611B
:100D800074696F6E20506173736564200D0A0000F2
:100D9000426F6F746C6F61646572205665722E20AD
:100DA00025642E25642E2564200D0A00435243201D
:100DB000566572696669636174696F6E2046616920
:100DC0006C6564200D0A00002DE9F84304460025F7
:100DD000A8460026002000901CA0FFF7A5FC207864
:100DE000451C601950F8048C291F42462046FFF725
:100DF00095FD012822D11FA0FFF796FC012000F0ED
:100E00007FF9D4F80260304601F030FD00909DF883
:100E1000000001280DD11EA0FFF786FC01216846C5
:100E200000F082F9771C394622A0FFF77DFCB84715
:100E300009E00121684600F077F904E022A0FFF7FD
:100E400073FC00F07FF9BDE8F88300004A756D700F
:100E500020626F6F746C6F6164657220746F2073B1
:100E60007065636966696564206164647265737343
:100E7000200D0A004352432056657269666963611A
:100E800074696F6E20506173736564200D0A0000F1
:100E90004164647265737320766572696669636123
:100EA00074696F6E20737563636565646564200D96
:100EB0000A0000004A756D7020746F203A20307867
:100EC0002558200D0A0000004352432056657269E0
:100ED0006669636174696F6E204661696C65642040
:100EE0000D0A0000704700002DE9FC410446002572
:100EF00000270026A84600200190009026A0FFF7BA
:100F000013FC2078451C601950F8047C291F3A46D0
:100F10002046FFF703FD012836D12CA0FFF704FC83
:100F2000012000F0EDF8D4F8026031462EA0FFF762
:100F3000FBFB94F80680304601F098FC01909DF888
:100F40000400012819D142463146E01D00F0BAFBE9
:100F500000909DF80000012807D10121684600F0AB
:100F6000E3F827A0FFF7E0FB13E02AA0FFF7DCFB84
:100F70000121684600F0D8F80BE000200190012123
:100F800001A800F0D1F804E027A0FFF7CDFB00F0A6
:100F9000D9F8BDE8FC81000057726974652064616E
:100FA000746120696E746F20646966666572656E2F
:100FB00074206D656D6F72696573206F662074684B
:100FC00065204D4355200D0A000000004352432088
:100FD000566572696669636174696F6E20506173EA
:100FE000736564200D0A0000484F53545F416464E8
:100FF00072657373203D2030782558200D0A00005B
:101000005061796C6F61642056616C6964200D0ACF
:10101000000000005061796C6F616420496E566178
:101020006C6964200D0A00004352432056657269C2
:101030006669636174696F6E204661696C656420DE
:101040000D0A000070470000F8B504460025002690
:101050000020009011A0FFF767FB2078451C601965
:1010600050F8046C291F32462046FFF757FC012830
:101070000DD115A0FFF758FB012000F041F800F05A
:1010800079F800900121684600F04EF804E015A0C0
:10109000FFF74AFB00F056F8F8BD000052656164A6
:1010A0002074686520464C41534820526561642095
:1010B00050726F74656374696F6E204F7574206C25
:1010C0006576656C200D0A004352432056657269AF
:1010D0006669636174696F6E205061737365642023
:1010E0000D0A0000435243205665726966696361C8
:1010F00074696F6E204661696C6564200D0A00009A
:1011000038B5044600200090CD208DF800008DF801
:1011100001404FF0FF3302226946024801F030FBE4
:1011200038BD00006400002070B504460D46AAB228
:101130004FF0FF332146024801F022FB70BD000052
:101140006400002008B5AB2000904FF0FF3301226F
:101150006946024801F014FB08BD0000640000204D
:1011600004E001229103024800F072FDF9E700005B
:10117000000C024000B587B0684600F06FFB049891
:10118000C0B207B000BD000070B588B005460124AC
:10119000002600F0E1FB044624B100BF17A0FFF7D2
:1011A000C3FA28E025A0FFF7BFFA02200190012032
:1011B0000490059501A800F063FB04463CB12FA004
:1011C000FFF7B2FA00F0BEFB0446002613E034A09D
:1011D000FFF7AAFA00F0A8FB04460CB100260AE0CB
:1011E00000F0B0FB04460CB1002604E001262946BD
:1011F00034A0FFF799FA304608B070BD4661696CBB
:101200006564202D3E20556E6C6F636B207468659D
:1012100020464C415348204F7074696F6E20436FD5
:101220006E74726F6C205265676973746572732097
:10123000616363657373200D0A000000506173736E
:101240006564202D3E20556E6C6F636B207468655D
:1012500020464C415348204F7074696F6E20436F95
:101260006E74726F6C205265676973746572732057
:10127000616363657373200D0A0000004661696C49
:101280006564202D3E2050726F6772616D206F7013
:1012900074696F6E206279746573200D0A00000016
:1012A000506173736564202D3E2050726F677261C8
:1012B0006D206F7074696F6E206279746573200D94
:1012C0000A000000506173736564202D3E20507247
:1012D0006F6772616D20524F5020746F204C65769D
:1012E000656C203A2030782558200D0A0000000057
:1012F000704772B600BFFEE710B5002201B909E0E1
:10130000012901D10A0205E0022901D10A0201E006
:101310004FF440720E4B1B6823F440730C4C236057
:1013200023461B681343236023461B6823F0F803FE
:10133000236023461B68022444EAC0042343044C70
:10134000236023461B6843F48033236010BD0000F4
:10135000103C02401C48006800F40070B0B11A480C
:10136000006820F400701849086000BF0846006853
:1013700040F4006008600846006820F400600860DF
:1013800000BF0846006840F4007008600E4800681E
:1013900000F48060B0B10C48006820F480600A4915
:1013A000086000BF0846006840F4805008600846A6
:1013B000006820F48050086000BF0846006840F4D0
:1013C0008060086070470000003C02400A4A1268D2
:1013D00022F44072084B1A601A46126842F0040266
:1013E0001A601A4612684FF4803343EA00231A4306
:1013F000014B1A6070470000103C0240014606484D
:10140000007820F00C00044A107010460078084361
:101410001070002070470000143C024070B5044674
:101420000E4600254CF2503000F01AF905462DB951
:1014300003480088A1B2084301490880284670BDCE
:10144000163C024070B504460E4600254CF2503062
:1014500000F006F9054625B903480088A043024973
:101460000880284670BD0000163C02400248007803
:1014700000F00C0070470000143C0240AA2007490D
:101480000978CC2901D1CC2006E004490978AA29A1
:1014900001D1AA2000E0552070470000153C024011
:1014A0000248006800F0E00070470000143C024071
:1014B0000148008870470000163C024070B50446A1
:1014C00000254CF2503000F0CBF805460DB902482B
:1014D0000470284670BD0000153C02402DE9F04123
:1014E00004460D4616464FF0FF0800274CF25030D8
:1014F00000F0B6F807464FB90648007800F01F081C
:1015000045EA080030432043024908703846BDE8E8
:10151000F0810000143C0240074A126822F4407235
:10152000054B1A601A4612681A601A46126842F091
:1015300001021A6001707047103C024010B50D495D
:10154000096821F440710B4C21602146096841F47F
:10155000407121602146096841F00101216002606B
:1015600000BF00BF00BFBFF36F8F00BF00BF00BF51
:10157000436010BD103C0240084A126822F44072D9
:10158000064B1A601A46126842F480721A601A46B4
:10159000126842F001021A6001807047103C02405C
:1015A000084A126822F44072064B1A601A46126802
:1015B00042F400721A601A46126842F001021A6080
:1015C00001607047103C02402348006800F01000A2
:1015D00040B12248C06940F010002049C861102085
:1015E0001D4908601C48006800F0200040B11B48FD
:1015F000C06940F008001949C861202016490860F8
:101600001548006800F0400040B11448C06940F03F
:1016100004001249C86140200F4908600E48006864
:1016200000F0800040B10D48C06940F002000B4955
:10163000C8618020084908600748006800F002007F
:1016400040B10648C06940F020000449C86102204A
:1016500001490860704700000C3C0240A4000020D3
:1016600070B50446002500201449C86100F0F6FA60
:10167000054609E0601C38B124B100F0EFFA401BC8
:10168000A04201D9032070BD0D48006800F48030ED
:101690000028EFD10A48006800F0010010B10120D5
:1016A000074908600648006800F0F20018B1FFF72B
:1016B0008BFF0120E7E70020E5E70000A400002001
:1016C0000C3C02402DE9F04706460F4690460124A7
:1016D0004FF00009002500F0A1F9044604B115E01F
:1016E000002510E016F805C0791962460023184657
:1016F00000F048F9044614B14FF0000905E04FF03E
:101700000109681C85B24545ECDB00BFB9F1010F4A
:101710000AD14CB900F0FEF8044614B14FF00009AC
:1017200004E04FF0010901E04FF000094846BDE830
:10173000F08770B503460C46002002255D7100213C
:1017400004E054F821501E683560491C9142F8D3DA
:101750001D68286801255D7170BD10B504460CB97F
:10176000012010BD607920B900202071204600F0D2
:1017700005F8012060710020F3E7000008B50A4A6F
:10178000016891420FD100BF00210091074909680B
:1017900041F48051054A11601146096801F48051F5
:1017A000009100BF00BF08BD003002403038024049
:1017B0002DE9F04104460E460127002500BF2548CB
:1017C000007E012802D10220BDE8F08101202149DC
:1017D000087600BF4CF25030FFF742FF0746002F5B
:1017E00031D1401E3060206801280FD1207C616813
:1017F000FFF7ECFD4CF25030FFF732FF074616487A
:10180000006820F00400144908601AE0A56812E09E
:10181000217C2846FFF770FD4CF25030FFF720FF87
:1018200007460D48006820F0FA000B4908600FB128
:10183000356005E06D1CD4E902100844A842E7D8E1
:1018400000BFFFF787FD00BF00200249087600BFF8
:101850003846B9E7A4000020103C024010B5044609
:101860000F202060FFF724FEA060FFF707FE206135
:10187000FFF716FE2076FFF7F9FD606110BD00004E
:1018800070B50446012500BF2148007E012801D122
:10189000022070BD01201E49087600BF207800F0AC
:1018A000010068B16068012805D1D4E90201FFF7A1
:1018B000C9FD054604E0D4E90201FFF7AFFD054686
:1018C000207800F00200022803D1207CFFF7F6FD0B
:1018D0000546207800F00400042809D1237E03F097
:1018E000800203F0400103F02000FFF7F7FD0546FA
:1018F000207800F00800082803D1207DFFF77EFD46
:10190000054600BF00200249087600BF2846C0E710
:10191000A40000200348006840F00040014908602E
:1019200000207047103C024010B50548007840F098
:101930000200034908704CF25030FFF791FE10BDD1
:10194000143C02400348006840F00100014908606F
:1019500000207047143C02400748006800F0010076
:1019600030B1064804490C3908600548086001E0B8
:10197000012070470020FCE7143C02403B2A190874
:101980007F6E5D4C2DE9F04106460F4614461D461C
:101990004FF0010800BF1F48007E012802D102203D
:1019A000BDE8F08101201B49087600BF4CF25030A1
:1019B000FFF756FE8046B8F1000F23D126B9E1B2F9
:1019C0003846FFF7A9FD12E0012E04D1A1B2384636
:1019D000FFF7D2FD0BE0022E04D121463846FFF777
:1019E000DFFD04E022462B463846FFF7A7FD4CF208
:1019F0005030FFF735FE80460748006820F00100B0
:101A00000549086000BF00200249087600BF404633
:101A1000C6E70000A4000020103C02400020094955
:101A2000096801F0004159B10749064A0C3A1160B2
:101A3000064911600349096801F0004101B1012024
:101A400070470000103C024023016745AB89EFCD91
:101A5000F8B502460B460025002400200021DCE0FA
:101A6000012606FA01F51E6806EA0504AC4273D1A8
:101A70005E68012E08D05E68022E05D05E68112EC9
:101A800002D05E68122E13D190684F000326BE402C
:101A9000B0434F00DE68BE4030439060506801267E
:101AA0008E40B0431E79C6F300168E40304350601E
:101AB000D0684F000326BE40B0434F009E68BE4032
:101AC0003043D0605E68022E02D05E68122E13D1C1
:101AD000CF0802F1200656F827004E07F70E0F2612
:101AE000BE40B0434F07FF0E1E69BE403043CF08D3
:101AF00002F1200646F8270010684F000326BE407A
:101B0000B0431E7906F003064F00BE40304310601C
:101B10005E6806F08056B6F1805F7DD100BF00267A
:101B20000096404E366846F480463E4F3E603E4644
:101B3000366806F48046009600BF00BF3A4E8F0814
:101B400056F827008E07370F0F26BE40B043374E9A
:101B5000B24202D1002624E05EE0354EB24201D10D
:101B600001261EE0334EB24201D1022619E0324E68
:101B7000B24201D1032614E0304EB24201D1042614
:101B80000FE02F4EB24201D105260AE02D4EB2429F
:101B900001D1062605E02C4EB24201D1072600E015
:101BA00008268F073F0FBE4030431F4E8F0846F870
:101BB0002700264E3068A0435E6806F48036B6F5EE
:101BC000803F00D12043214E3060361D3068A04355
:101BD0005E6806F40036B6F5003F00D120431B4E88
:101BE000361D3060361D3068A0435E6806F48016EE
:101BF000B6F5801F00D12043144E08363060361DE4
:101C00003068A0435E6806F40016B6F5001F00D1E8
:101C100020430E4E0C363060491C1029FFF420AFD3
:101C2000F8BD00004438024008380140000002407E
:101C30000004024000080240000C02400010024074
:101C40000014024000180240001C0240003C014009
:101C50000AB1816101E00B048361704701480068AB
:101C60007047000008000020034800680349097815
:101C70000844014908607047080000201000002057
:101C800010B50D48006840F400700B490860084624
:101C9000006840F4806008600846006840F4807086
:101CA0000860032000F092F8002000F007F800F030
:101CB0002BF8002010BD0000003C024070B5044627
:101CC0000E4800784FF47A71B1FBF0F00C490968C6
:101CD000B1FBF0F5284600F011FC08B1012070BD01
:101CE000102C07D200222146501E00F031F8054882
:101CF000046001E00120F2E70020F0E7100000207E
:101D0000140000200C00002008B500BF0020009047
:101D10000E48006840F480400C490860084600689E
:101D200000F48040009000BF00BF00BF0020009082
:101D3000081F006840F08050091F086008460068CE
:101D400000F08050009000BF00BF08BD4438024042
:101D50002DE9F05F80460D461646002701F080F918
:101D6000074639462A46334601F00700C0F1070A04
:101D7000BAF1040F02D94FF0040A01E0C0F1070ADA
:101D8000D14600F1040ABAF1070F02D24FF0000A5F
:101D900001E0A0F1030AD4464FF0010A0AFA09FA59
:101DA000AAF1010A0AEA020A0AFA0CFA4FF0010B38
:101DB0000BFA0CFBABF1010B0BEA030B4AEA0B0429
:101DC0002146404601F054F9BDE8F09F00BF00F005
:101DD0000702064B19684FF6FF031940044B0B43EB
:101DE00043EA0221014B196000BF70470CED00E08F
:101DF0000000FA0570B504460D460CB9012070BD0F
:101E00005848006800F00F00A84209D255490D70EB
:101E10000846006800F00F00A84201D00120EEE75C
:101E2000207800F0020002281DD1207800F0040084
:101E3000042805D14C48006840F4E0504A49086045
:101E4000207800F00800082805D14748006840F4D1
:101E50006040454908604448006820F0F000A168EF
:101E6000084341490860207800F00100A8B3606889
:101E7000012807D13C4808380068C0F34040B8B991
:101E80000120BCE76068022802D06068032807D1FF
:101E9000354808380068C0F3406048B90120AEE713
:101EA000314808380068C0F3400008B90120A6E7AF
:101EB0002D48006820F00300616808432A49086043
:101EC000FFF7CCFE064609E0FFF7C8FE801B41F293
:101ED0008831884202D9032091E707E02248006850
:101EE00000F00C006168B0EB810FEDD11D48006877
:101EF00000F00F00A84209D91A490D700846006881
:101F000000F00F00A84201D0012078E7207800F00F
:101F10000400042807D11448006820F4E050E16868
:101F2000084311490860207800F00800082808D10B
:101F30000D48006820F46040216940EAC1000A4968
:101F4000086000F03FF808490968C1F30311074A27
:101F5000515CC8400649086006480068FFF7AEFEBD
:101F600000204CE7003C0240083802409C39000841
:101F7000140000200C000020014800687047000099
:101F80001400002000B5FFF7F7FF04490968C1F30A
:101F90008221034A515CC84000BD0000083802405D
:101FA000AC39000800B5FFF7E7FF04490968C1F341
:101FB0004231034A515CC84000BD0000083802406D
:101FC000AC3900082DE9F047002400250026A14681
:101FD0002548006800F00C0020B1042805D008282E
:101FE0003AD105E0DFF8849039E0DFF8849036E0FC
:101FF0001D48001F006800F03F041B48001F0068D8
:1020000000F4800078B11A481749091F0968C1F324
:102010008811A0FB01700146224600233846FEF7D6
:10202000D1F805460EE011480F49091F0968C1F3B0
:102030008811A0FB01700146224600233846FEF7B6
:10204000C1F805460848001F0068C0F30140401C65
:102050004600B5FBF6F902E0DFF8109000BF00BFC4
:102060004846BDE8F0870000083802400024F4002C
:1020700000127A00F8B504460CB90120F8BD2078AA
:1020800000F00100002874D0F948006800F00C004E
:1020900004280DD0F648006800F00C00082813D181
:1020A000F348001F006800F48000B0F5800F0BD1EA
:1020B000EF4808380068C0F34040002859D06068F5
:1020C000002856D10120D9E700BF6068B0F5803FF5
:1020D00008D1E7480838006840F48030E4490839FE
:1020E00008601EE06068B0F5A02F0DD1E048083808
:1020F000006840F48020DE4908390860084600681E
:1021000040F4803008600CE0D9480838006820F4BA
:102110008030D749083908600846006820F48020DC
:10212000086000BF606890B1FFF798FD054606E0C3
:10213000FFF794FD401B642801D903209EE7CC489B
:1021400008380068C0F340400028F1D011E0FFF7E4
:1021500085FD054606E0FFF781FD401B642801D997
:1021600003208BE7C24808380068C0F340400028CD
:10217000F1D1207800F0020002285FD1BC4800684D
:1021800000F00C0058B1BA48006800F00C000828B4
:102190001CD1B748001F006800F48000B0B9B448F3
:1021A00008380068C0F3400020B1E068012801D081
:1021B000012063E7AE480838006820F0F800216984
:1021C00040EAC100AA490839086037E0E06800B376
:1021D0000120A8490860FFF741FD054606E0FFF72A
:1021E0003DFD401B022801D9032047E7A0480838DD
:1021F0000068C0F340000028F1D09D48083800680E
:1022000020F0F800216940EAC100994908390860C6
:1022100014E0002097490860FFF720FD054606E01E
:10222000FFF71CFD401B022801D9032026E7904838
:1022300008380068C0F340000028F1D1207800F091
:10224000080008282CD16069A8B101208A490860DB
:10225000FFF704FD054606E0FFF700FD401B0228DE
:1022600001D903200AE782486C300068C0F34000BF
:102270000028F1D014E000207F490860FFF7EEFC51
:10228000054606E0FFF7EAFC401B022801D90320BF
:10229000F4E677486C300068C0F340000028F1D1C4
:1022A000207800F00400042870D1002770483830EE
:1022B000006800F0805090B900BF002000906C488A
:1022C0003830006840F0805069493831086008466D
:1022D000006800F08050009000BF00BF01276748F1
:1022E000006800F48070B0B96448006840F4807001
:1022F00062490860FFF7B2FC054606E0FFF7AEFC56
:10230000401B022801D90320B8E65C48006800F4AD
:1023100080700028F2D000BFA068012808D154487E
:102320006830006840F001005149683108601DE0E4
:10233000A06805280DD14E486830006840F00400C0
:102340004B49683108600846006840F001000860A9
:102350000CE047486830006820F0010044496831CB
:1023600008600846006820F00400086000BFA0680C
:10237000A8B1FFF773FC054609E0FFF76FFC401BAF
:1023800041F28831884202D9032077E626E03848B6
:1023900068300068C0F340000028EED013E0FFF77B
:1023A0005DFC054608E0FFF759FC401B41F288310F
:1023B000884201D9032061E62D4868300068C0F3E7
:1023C00040000028EFD1012F07D12948383000689C
:1023D00020F0805026493831086000BFA0690028ED
:1023E00045D02348006800F00C0008285DD0A069A3
:1023F000022845D100201F490866FFF72FFC05463B
:1024000006E0FFF72BFC401B022801D9032035E62C
:10241000174808380068C0F340600028F1D1D4E9BB
:1024200007010843616A40EA81110122A06AC2EBF8
:10243000500041EA00412C20005D41EA00600C4957
:10244000091F086001200B490866FFF707FC0546D5
:1024500006E0FFF703FC401B022801D903200DE62C
:10246000034808380068C0F340600028F1D03FE01E
:102470000838024000004742800E4742007000408A
:1024800000201C490866FFF7E9FB054606E0FFF758
:10249000E5FB401B022801D90320EFE51648006840
:1024A000C0F340600028F2D122E0A069012800D1E9
:1024B000E4E51148001D066806F48001E0698142E8
:1024C00014D106F03F01206A81420FD147F6C07057
:1024D0003040616A884209D106F44031A06A8142E5
:1024E00004D106F07061E06A814201D00120C5E5A7
:1024F0000020C3E5000047420038024070B50446A2
:102500002546681EB0F1807F01D301200FE0681ED0
:102510004FF0E02148610F214FF0FF3000F0A8FD9F
:1025200000204FF0E021886107200861002070BD85
:1025300010B504460CB9012010BDA06900B100E03F
:1025400000BF94F8390028B9002084F838002046EC
:1025500000F028F8242084F839002068C06820F4AE
:1025600000502168C860204600F034FB20680069F4
:1025700020F49040216808612068406920F02A001A
:10258000216848612068C06840F400502168C86034
:102590000020E063202084F8390084F83A0000200D
:1025A000CAE7000010B586B00446142101A8FDF763
:1025B00041FE36492068884230D100BF002000909B
:1025C0003348006840F4003031490860084600682C
:1025D00000F40030009000BF00BF00BF002000905A
:1025E0002B481038006840F0010029491039086074
:1025F0000846006800F00100009000BF00BF0C20FA
:1026000001900220029000200390032004900720F4
:10261000059001A91F48FFF71BFA34E01E49206806
:10262000884230D100BF002000901948006840F473
:102630008020174908600846006800F48020009058
:1026400000BF00BF00BF0020009011481038006894
:1026500040F002000E49103908600846006800F09A
:102660000200009000BF00BF4FF4406001900220C4
:10267000029000200390032004900720059001A9F8
:102680000648FFF7E5F906B010BD00000044004021
:102690004038024000000240004800400004024070
:1026A0002DE9F84304460D4616461F464FF0000933
:1026B00094F83A00202861D105B116B90120BDE88F
:1026C000F88300BF94F83800012801D10220F6E712
:1026D000012084F8380000BF0020E063222084F845
:1026E0003A00FFF7BBFA8146A685E68500BF0020C9
:1026F00084F8380000BF39E0E08D401EE085A06816
:10270000B0F5805F1BD14B46002220212046009768
:1027100000F054FC08B10320D1E7A846206938B97D
:1027200020684068C0F30800A8F80000AD1C1DE058
:1027300020684068C0B2A8F800006D1C16E04B4647
:10274000002220212046009700F038FC08B1032029
:10275000B5E7206920B92068406805F8010B05E05D
:102760002068406800F07F0005F8010BE08D00282C
:10277000C2D1202084F83A000020A0E702209EE782
:102780002DE9F84304460D4616461F464FF0000952
:1027900094F8390020285DD105B116B90120BDE8B3
:1027A000F88300BF94F83800012801D10220F6E731
:1027B000012084F8380000BF0020E063212084F865
:1027C0003900FFF74BFA8146A684E68400BF00205B
:1027D00084F8380000BF2BE0E08C401EE084A06845
:1027E000B0F5805F16D14B4600228021204600972D
:1027F00000F0E4FB08B10320D1E7A846B8F80000D8
:10280000C0F3080021684860206908B9AD1C0FE0DA
:102810006D1C0DE04B46002280212046009700F001
:10282000CDFB08B10320BAE715F8010B2168486019
:10283000E08C0028D0D14B46002240212046009752
:1028400000F0BCFB08B10320A9E7202084F8390080
:102850000020A4E70220A2E704E00122910302483D
:10286000FFF7F6F9F9E70000000C024001460020EE
:10287000B1F1005F04D30F4A914201D8012018E062
:102880000C4A914204D30C4A914201D8012010E035
:10289000B1F1805F04D3094A914201D8012008E0D8
:1028A000B1F1006F04D3B1F1016F01D8012000E054
:1028B0000020704700C0012000000220000001102D
:1028C00010B50548054908600846FEF746FF08B1FF
:1028D000FEF70FFD10BD0000003002400000002098
:1028E00000B587B0142102A8FDF7A4FC00BF0020AA
:1028F00001902748006840F080002549086008469C
:10290000006800F08000019000BF00BF00BF002001
:1029100001900846006840F0010008600846006821
:1029200000F00100019000BF00BF00BF0020019037
:102930000846006840F0020008600846006800F0A1
:102940000200019000BF00BF00BF002001900846B8
:10295000006840F0080008600846006800F00800C1
:10296000019000BF00BF00224FF470410948FFF7FB
:102970006FF94FF470400290012003900020049002
:10298000059002A90348FFF763F807B000BD0000F7
:1029900030380240000C024010B50B480B4908606B
:1029A0004FF4E1304860002108488160C160016156
:1029B0000C21416100218161C161FFF7B9FD08B1BE
:1029C000FEF797FC10BD00000044004024000020EA
:1029D00010B50B480B4908604FF4E1304860002106
:1029E00008488160C16001610C2141610021816161
:1029F000C161FFF79DFD08B1FEF77BFC10BD000033
:102A0000004800406400002004E0012291030248D5
:102A1000FFF71EF9F9E70000000C024001229103C4
:102A20000248FFF715F900BFFEE70000000C024066
:102A3000704700002DE9F04186B004460D4600279E
:102A400000264FF00108002000900C2D00DD30E042
:102A50000B2C01DDFF2C2BD1FF2C05D10120019087
:102A600016A0FDF761FE0CE01CA0FDF75DFEC4F1B1
:102A70000C00C6B2B54200DD35460020019003943B
:102A800004950120029002200590FEF7C7FF8046C2
:102A9000694601A8FEF78CFE80460098B0F1FF3F22
:102AA00001D1032700E00227FEF734FF804600E053
:102AB0000227384606B0BDE8F0810000466C61731D
:102AC00068204D6173732065726173652061637462
:102AD00069766174696F6E200D0A00005573657226
:102AE000206E6565647320536563746F7220657230
:102AF000617365200D0A0000704710B5FFF7B4F848
:102B000010BD000000B593B0302107A8FDF792FB7F
:102B1000142102A8FDF78EFB00BF0020019024487D
:102B2000006840F08050224908600846006800F0C4
:102B30008050019000BF00BF00BF002001901D48E1
:102B4000006840F480401B4908600846006800F4B3
:102B50008040019000BF00BF012007900004089052
:102B600002200D9041050E9104210F91A821109192
:102B7000022111910421129107A8FFF77BFA08B1F5
:102B8000FEF7B7FB0F200290022003900020049074
:102B90004FF4A05005904FF480500690052102A8F4
:102BA000FFF728F908B1FEF7A4FB13B000BD000041
:102BB00040380240007000400548006840F4700052
:102BC000034908604FF00060014980390860704790
:102BD00088ED00E02DE9F84F04462068006920F4F4
:102BE0004050E1680843216808612169A0680843F2
:102BF00061690843E169084300902068C06849F2B0
:102C00000C618843009908432168C86020684069C6
:102C100020F44070A169084321684861E069B0F57B
:102C2000004F75D1E3492068884203D0E24920680B
:102C300088426FD1FFF7B6F9814602206168A0FB98
:102C400001510B461920A9FB00712A463846FDF7B1
:102C5000B9FA6421B0FBF1F04FEA001A0220616872
:102C6000A0FB01510B461920A9FB00712A463846EA
:102C7000FDF7A8FA074602206168A0FB01510B4648
:102C80001920A9FB00B12A465846FDF79BFA64219A
:102C9000B0FBF1F000EBC00101EB0010A7EB8000EE
:102CA000322101EBC0006421B0FBF1F000F0F8002C
:102CB0000AEB400A02206168A0FB01510B46192073
:102CC000A9FB00712A463846FDF77CFA0746022028
:102CD0006168A0FB01510B461920A9FB00B12A46EF
:102CE0005846FDF76FFA6421B0FBF1F000EBC0012C
:102CF00001EB0010A7EB8000322101EBC000642142
:102D0000B0FBF1F000F007005044216888604FE10B
:102D10006EE0FFE7FFF736F9814602206168A0FB0D
:102D200001510B461920A9FB00712A463846FDF7D0
:102D300049FA6421B0FBF1F04FEA001A0220616801
:102D4000A0FB01510B461920A9FB00712A46384609
:102D5000FDF738FA074602206168A0FB01510B46D7
:102D60001920A9FB00B12A465846FDF72BFA642129
:102D7000B0FBF1F000EBC00101EB0010A7EB80000D
:102D8000322101EBC0006421B0FBF1F000F0F8004B
:102D90000AEB400A02206168A0FB01510B46192092
:102DA000A9FB00712A463846FDF70CFA07460220B7
:102DB0006168A0FB015003461920A9FB00B12A4617
:102DC0005846FDF7FFF96421B0FBF1F000EBC001BC
:102DD00001EB0010A7EB8000322101EBC000642161
:102DE000B0FBF1F000F00700504421688860DFE09C
:102DF00070492068884203D06F49206888426BD1AF
:102E0000FFF7D0F8814604206168A0FB01510B4612
:102E10001920A9FB00712A463846FDF7D3F98246EE
:102E200004206168A0FB01510B461920A9FB007129
:102E30002A463846FDF7C6F96421B0FBF1F000EBF5
:102E4000C00101EB0010AAEB8000322101EB001061
:102E50006421B0FBF1F000F0F00A04206168A0FBEF
:102E6000015003461920A9FB00712A463846FDF798
:102E7000A9F96421B0FBF1F00AEB001A04206168A3
:102E8000A0FB01510B461920A9FB00712A463846C8
:102E9000FDF798F9074604206168A0FB015003463E
:102EA0001920A9FB00B12A465846FDF78BF9642189
:102EB000B0FBF1F000EBC00101EB0010A7EB8000CC
:102EC000322101EB00106421B0FBF1F000F00F00A3
:102ED0005044216888606BE0FFF754F88146042075
:102EE0006168A0FB015003461920A9FB00712A4626
:102EF0003846FDF767F9824604206168A0FB01505F
:102F000003461920A9FB00712A463846FDF75AF9F5
:102F10006421B0FBF1F000EBC00101EB0010AAEB63
:102F20008000322101EB00106421B0FBF1F000F0D1
:102F3000F00A04206168A0FB015003461920A9FB98
:102F400000712A463846FDF73DF96421B0FBF1F0E7
:102F50000AEB001A04206168A0FB017003461920E7
:102F6000A9FB005001463A462846FDF72BF90746D3
:102F700004206168A0FB015003461920A9FB00B1A1
:102F80002A465846FDF71EF96421B0FBF1F000EB2C
:102F9000C00101EB0010A7EB8000322101EB001013
:102FA0006421B0FBF1F000F00F005044216888600C
:102FB000BDE8F88F00100140001401402DE9F041F8
:102FC00004460D4617469846069E21E0701CF8B14F
:102FD0002EB1FEF743FEA0EB0800B04218D92068DE
:102FE000C06820F4D0702168C8602068406920F073
:102FF000010021684861202084F8390084F83A00F3
:1030000000BF002084F8380000BF0320BDE8F08135
:10301000206800682840A84201D1012000E000207B
:10302000B842D3D00020F1E704E001229103024826
:10303000FEF70EFEF9E70000000C024037B514461B
:103040000846064B6A46214600F0F8F804466946F1
:10305000002000F076FC20463EBD00004339000809
:1030600002480068C0F30220704700000CED00E049
:1030700010B5002804DB0A07130E054A135406E0B6
:103080000A07140E034A00F00F031B1FD45410BD8F
:1030900000E400E018ED00E002E008C8121F08C1DB
:1030A000002AFAD170477047002001E001C1121FC9
:1030B000002AFBD1704700002DE9FF5F82B000219C
:1030C000DDE90430020DDDF840B0034318D044F6CA
:1030D0001050A2F2FF3242431514119801281FD05C
:1030E000A5EB0B00401C5FEA000A4FF000064E4FB4
:1030F000DFF83891B046504615D5CAF1000413E008
:10310000119801244AA3012801D16FEA0B0102980A
:10311000119AC0E90031C0E9024206B0BDE8F09F53
:10312000CBF10000DFE704460021404A491842EB9A
:103130000450CDE9001012E0E00707D032463B46CC
:1031400040464946FDF75DF98046894632463B4692
:1031500010461946FDF755F906460F466410002C37
:10316000EAD1DDE90401DDE90023BAF1000F06DA56
:10317000FDF747F942464B46FDF743F905E0FDF7F9
:10318000B2F942464B46FDF7AEF904460E46002220
:10319000284BFDF72FFA03D84FF0FF30014607E028
:1031A0000022254B20463146FDF784F8FDF70AFA48
:1031B000102409E0002C0ADB0A220023FDF702F8A4
:1031C000039B30321A55641E50EA0102F2D1641C8E
:1031D000039AC4F111031444119A012A03D0012265
:1031E00008430DD10AE0084304D000204FF0110B32
:1031F000119072E7A3EB0B056D1E0DE05B4504DD3E
:103200004FF0000205F1010504E003DA4FF000027F
:10321000A5F10105002AECD002981199C0E902310C
:10322000C0E9004579E70000000014400000F03FCD
:10323000300000000000F0430000E03F2DE9FF4FA8
:1032400095B09A46884606460025EEE1252877D1B6
:1032500000242746F94A0121039400E0044316F8AC
:10326000013F203B01FA03F01042F7D130782A28C1
:1032700011D06FF02F033078A0F13002092A16D850
:10328000039A44F0020402EB820203EB4202104470
:10329000761C0390EFE758F8042B0392002A03DA18
:1032A000504244F40054039044F00204761C3078F9
:1032B0002E2816D116F8010F44F004042A280DD048
:1032C0006FF02F023078A0F13003092B09D807EBFB
:1032D000870302EB4303C718761CF3E758F8047B17
:1032E000761C30786C280FD006DC4C2817D0682864
:1032F0000DD06A2814D104E0742810D07A280FD198
:103300000DE044F400140AE044F4801401E044F4B5
:1033100040147278824202D104F58014761C761C27
:10332000307866280BD013DC582877D009DC0028C9
:1033300075D04528F6D04628F4D047281AD193E115
:1033400018E0632835D0642879D0652812D18BE144
:10335000702873D008DC6728F1D069286FD06E28F8
:103360000DD06F2806D1ACE073282CD0752874D00E
:10337000782853D05246179990476D1C54E1C4F3F6
:103380000250022809D003280DD0D8F800100428D4
:103390000DD00D6008F1040846E1D8F80010EA17D6
:1033A000C1E90052F6E7D8F800100D80F2E70D7081
:1033B000F0E718F8041B8DF8001000208DF80100CC
:1033C000EB46012003E058F804BB4FF0FF306107E3
:1033D0004FF0000102D40DE009F101018946B94224
:1033E0000FDA8145F8DB1BF809100029F4D108E059
:1033F00009F1010189468142FADB1BF80910002915
:10340000F6D103985346A0EB090721463846179A90
:1034100000F080FA284400EB090507E044E008E1E9
:103420000DE01BF8010B524617999047B9F10109BD
:10343000F7D2534621463846179AF2E039E00A217E
:10344000C4F302524FF0000B0091022A06D058F844
:10345000040BC117032A09D00AE023E008F1070092
:1034600020F00702F2E80201904605E000B2C11721
:10347000042A01D140B2C117002906DA0A46002108
:10348000404261EB02012D2202E0220504D52B22ED
:103490008DF80420012203E0E20701D02022F7E7A3
:1034A000914657E00A2100E010214FF0000B0091F7
:1034B0000BE010214FF0000B44F0040408270091AA
:1034C00003E008204FF0000B0090C4F30252022AE0
:1034D00005D058F8040B0021032A08D008E008F1B1
:1034E000070020F00702F2E80201904603E080B2F4
:1034F000042A00D1C0B24FF0000922072AD5327841
:10350000702A07D0DDF800C08CF0100C5CEA0B0CC0
:1035100005D00EE040228DF80420012208E050EA98
:10352000010306D030238DF804308DF805200222E7
:103530009146009B83F0080353EA0B030AD150EA3B
:10354000010201D1620705D530228DF804204FF029
:1035500001097F1E3278582A04D039A20C920CAA95
:1035600002920BE03BA2F9E75B46009AFCF72AFEC9
:103570000C9B9B5C029A521E0292137050EA01024D
:10358000F2D1029804A9081A00F1200B600702D5B5
:1035900024F4803400E001275F4502DDA7EB0B0037
:1035A00000E0002000EB0B01009003984944401A12
:1035B0000390E00306D453462146179A039800F07F
:1035C000A9F90544002706E001A85246C05D1799F5
:1035D00090476D1C7F1C4F45F6DBE0030CD553462E
:1035E0002146179A039800F095F9054404E030202D
:1035F0005246179990476D1C0099481E009000296B
:10360000F5DC08E00298029952460078491C0291C4
:10361000179990476D1CBBF10001ABF1010BF1DC78
:103620005BE100F065F90544761C307800287FF4F2
:103630000DAE19B02846BDE8F08F00000928010042
:103640003031323334353637383961626364656618
:1036500000000000303132333435363738394142DA
:103660004344454600000000600700D4062708F1E7
:10367000070020F00700F0E80223804603F0004C2A
:103680005FEA0C0001D097A009E0200501D596A0C3
:1036900005E0E00701D095A001E0AFF24C001390E7
:1036A000307823F0004365280CD006DC452809D08B
:1036B00046281DD047287FD13BE0662818D06728D0
:1036C0007AD136E00021112F01DB112000E0781CB7
:1036D000CDE9000104A90CA8FFF7EEFCDDE90D011E
:1036E0000C9A4FF0000B07F10109109200914EE087
:1036F0004FF000400097CDE9011004A90CA8FFF796
:10370000DBFCDDE90D020C9B0F994FF0000B91469D
:103710001093009211B9791C00EB0109B7EB090075
:1037200003D4C0F1FF3B07F10109A9EB07000190A9
:1037300042E0012F00DA01270021112F01DD1120C5
:1037400000E03846CDE9000104A90CA8FFF7B4FC5D
:10375000DDE90D010C9A00914FF0000BB946109273
:1037600021070FD4009A4A4503DA914601E0A9F1F6
:103770000109B9F1010F05DD109AA9F10101515CB0
:103780003029F4D0B84202DA10F1040F03DA012133
:10379000CDE9011010E0002803DC8344A9EB00010F
:1037A00002E0411C494500DD8946A0EB0B00401CAE
:1037B00001904FF000400290200705D40198484541
:1037C00002DB4FF0FF30019000208DF84B00029893
:1037D0000DF14B07B0F1004F25D002200C902B20AB
:1037E0000D90029800280CDA404202902D200D9096
:1037F00007E00A210298FCF728FD3031029007F813
:10380000011D0C99481E0C900029F2DC029800283A
:10381000EFD1791E0D980870307800F0200040F04C
:10382000450007F8020D11A8C01BC01D0290139897
:10383000007800B1012000EB0901019801EBE07173
:10384000029801440398401A401E0390E00306D4F6
:1038500053462146179A039800F05CF805441398E4
:10386000007818B15246179990476D1CE00323D594
:1038700053462146179A039800F04CF805441BE084
:10388000BBF1000F07DB0098584504DD109817992D
:1038900010F80B0001E0179930205246904701982C
:1038A0000BF1010B401E05F10105019004D12E2002
:1038B0005246179990476D1CB9F10001A9F1010911
:1038C000DEDC05E017F8010B5246179990476D1C96
:1038D0000299481E02900029F4DC53462146179AAB
:1038E00003989EE62D0000002B0000002000000041
:1038F0002DE9F041044600251E461746880404D4ED
:1039000005E039462020B0476D1C641EF9D52846D5
:10391000BDE8F0812DE9F041044600251E469046A1
:10392000C80301D5302700E02027880404D505E02E
:1039300041463846B0476D1C641EF9D52846BDE89F
:10394000F0810A68531C0B6010707047FEF798F9FD
:10395000FFF7D8F8FEF7C4FFFEF7B2FFFFF71CF839
:10396000FFF736F800BF06A0FCF7DEFE01221103C8
:103970000948FEF76DF901E0FCF7F2FEFCE70000F4
:10398000426F6F746C6F61646572207374617274DE
:1039900065642E200D0A0000000C024000000000AB
:1039A00000000000010203040607080900000000EF
:1039B00001020304456E61626C65206F72204469E8
:1039C0007361626C652077726974652070726F74C0
:1039D000656374206F6E20646966666572656E74D7
:1039E00020736563746F7273206F6620746865203E
:1039F0007573657220666C617368200D0A000000A3
:103A0000203A000800000020240000009830000840
:103A1000443A0008240000206C050000A83000088B
:103A20000000000000000000000000001000000086
:103A3000010000000024F4001011121314151617D1
:043A40001819202110
:040000050800018965
:00000001FF
